{
  "contractName": "Clicker",
  "abi": [
    {
      "inputs": [
        {
          "internalType": "address",
          "name": "_tokenAddr",
          "type": "address"
        }
      ],
      "stateMutability": "nonpayable",
      "type": "constructor"
    },
    {
      "anonymous": false,
      "inputs": [
        {
          "components": [
            {
              "internalType": "uint8",
              "name": "grade",
              "type": "uint8"
            },
            {
              "internalType": "uint8",
              "name": "speed",
              "type": "uint8"
            },
            {
              "internalType": "uint8",
              "name": "stamina",
              "type": "uint8"
            },
            {
              "internalType": "uint256",
              "name": "dna",
              "type": "uint256"
            }
          ],
          "indexed": false,
          "internalType": "struct Clicker.employee",
          "name": "newEmployee",
          "type": "tuple"
        }
      ],
      "name": "BuyEmployee",
      "type": "event"
    },
    {
      "anonymous": false,
      "inputs": [
        {
          "indexed": false,
          "internalType": "uint256",
          "name": "amount",
          "type": "uint256"
        }
      ],
      "name": "receivedReward",
      "type": "event"
    },
    {
      "inputs": [
        {
          "internalType": "uint256",
          "name": "_cost",
          "type": "uint256"
        }
      ],
      "name": "buyEmployee",
      "outputs": [],
      "stateMutability": "payable",
      "type": "function",
      "payable": true
    },
    {
      "inputs": [
        {
          "internalType": "uint256",
          "name": "_amount",
          "type": "uint256"
        }
      ],
      "name": "receiveReward",
      "outputs": [],
      "stateMutability": "nonpayable",
      "type": "function"
    },
    {
      "inputs": [],
      "name": "getAllEmployees",
      "outputs": [
        {
          "components": [
            {
              "internalType": "uint8",
              "name": "grade",
              "type": "uint8"
            },
            {
              "internalType": "uint8",
              "name": "speed",
              "type": "uint8"
            },
            {
              "internalType": "uint8",
              "name": "stamina",
              "type": "uint8"
            },
            {
              "internalType": "uint256",
              "name": "dna",
              "type": "uint256"
            }
          ],
          "internalType": "struct Clicker.employee[]",
          "name": "",
          "type": "tuple[]"
        }
      ],
      "stateMutability": "view",
      "type": "function",
      "constant": true
    }
  ],
  "bytecode": "0x6080604052662386f26fc1000060035534801561001b57600080fd5b50604051610dd0380380610dd0833981810160405281019061003d91906100e7565b80600460006101000a81548173ffffffffffffffffffffffffffffffffffffffff021916908373ffffffffffffffffffffffffffffffffffffffff16021790555050610114565b600080fd5b600073ffffffffffffffffffffffffffffffffffffffff82169050919050565b60006100b482610089565b9050919050565b6100c4816100a9565b81146100cf57600080fd5b50565b6000815190506100e1816100bb565b92915050565b6000602082840312156100fd576100fc610084565b5b600061010b848285016100d2565b91505092915050565b610cad806101236000396000f3fe6080604052600436106100345760003560e01c80634095407314610039578063ae10d5ea14610055578063e3366fed1461007e575b600080fd5b610053600480360381019061004e9190610709565b6100a9565b005b34801561006157600080fd5b5061007c60048036038101906100779190610709565b6103b6565b005b34801561008a57600080fd5b50610093610502565b6040516100a09190610865565b60405180910390f35b80600460009054906101000a900473ffffffffffffffffffffffffffffffffffffffff1673ffffffffffffffffffffffffffffffffffffffff166370a08231336040518263ffffffff1660e01b815260040161010591906108c8565b602060405180830381865afa158015610122573d6000803e3d6000fd5b505050506040513d601f19601f8201168201806040525081019061014691906108f8565b1015610187576040517f08c379a000000000000000000000000000000000000000000000000000000000815260040161017e90610982565b60405180910390fd5b600460009054906101000a900473ffffffffffffffffffffffffffffffffffffffff1673ffffffffffffffffffffffffffffffffffffffff166323b872dd3330846040518463ffffffff1660e01b81526004016101e6939291906109b1565b6020604051808303816000875af1158015610205573d6000803e3d6000fd5b505050506040513d601f19601f820116820180604052508101906102299190610a20565b5060006102346105c2565b9050600281908060018154018082558091505060019003906000526020600020906002020160009091909190915060008201518160000160006101000a81548160ff021916908360ff16021790555060208201518160000160016101000a81548160ff021916908360ff16021790555060408201518160000160026101000a81548160ff021916908360ff160217905550606082015181600101555050336000808360600151815260200190815260200160002060006101000a81548173ffffffffffffffffffffffffffffffffffffffff021916908373ffffffffffffffffffffffffffffffffffffffff160217905550600160003373ffffffffffffffffffffffffffffffffffffffff1673ffffffffffffffffffffffffffffffffffffffff168152602001908152602001600020600081548092919061037690610a7c565b91905055507f4eb079491f57aa74c1746cf2e043c0edc9127c00b6a336546cb64a9a07cd4ccc816040516103aa9190610b1a565b60405180910390a15050565b80600460009054906101000a900473ffffffffffffffffffffffffffffffffffffffff1673ffffffffffffffffffffffffffffffffffffffff166370a08231306040518263ffffffff1660e01b815260040161041291906108c8565b602060405180830381865afa15801561042f573d6000803e3d6000fd5b505050506040513d601f19601f8201168201806040525081019061045391906108f8565b101561045e57600080fd5b600460009054906101000a900473ffffffffffffffffffffffffffffffffffffffff1673ffffffffffffffffffffffffffffffffffffffff1663a9059cbb33836040518363ffffffff1660e01b81526004016104bb929190610b35565b6020604051808303816000875af11580156104da573d6000803e3d6000fd5b505050506040513d601f19601f820116820180604052508101906104fe9190610a20565b5050565b60606002805480602002602001604051908101604052809291908181526020016000905b828210156105b957838290600052602060002090600202016040518060800160405290816000820160009054906101000a900460ff1660ff1660ff1681526020016000820160019054906101000a900460ff1660ff1660ff1681526020016000820160029054906101000a900460ff1660ff1660ff16815260200160018201548152505081526020019060010190610526565b50505050905090565b6105ca61069d565b600060036105d6610652565b6105e09190610b8d565b90506000600a6105ee610652565b6105f89190610b8d565b905081816106069190610bbe565b905060008190506000610617610652565b9050600060405180608001604052808660ff1681526020018560ff1681526020018460ff168152602001838152509050809550505050505090565b6000804244604051602001610668929190610c1a565b6040516020818303038152906040528051906020012060001c90506000600354826106939190610c46565b9050809250505090565b6040518060800160405280600060ff168152602001600060ff168152602001600060ff168152602001600081525090565b600080fd5b6000819050919050565b6106e6816106d3565b81146106f157600080fd5b50565b600081359050610703816106dd565b92915050565b60006020828403121561071f5761071e6106ce565b5b600061072d848285016106f4565b91505092915050565b600081519050919050565b600082825260208201905092915050565b6000819050602082019050919050565b600060ff82169050919050565b61077881610762565b82525050565b610787816106d3565b82525050565b6080820160008201516107a3600085018261076f565b5060208201516107b6602085018261076f565b5060408201516107c9604085018261076f565b5060608201516107dc606085018261077e565b50505050565b60006107ee838361078d565b60808301905092915050565b6000602082019050919050565b600061081282610736565b61081c8185610741565b935061082783610752565b8060005b8381101561085857815161083f88826107e2565b975061084a836107fa565b92505060018101905061082b565b5085935050505092915050565b6000602082019050818103600083015261087f8184610807565b905092915050565b600073ffffffffffffffffffffffffffffffffffffffff82169050919050565b60006108b282610887565b9050919050565b6108c2816108a7565b82525050565b60006020820190506108dd60008301846108b9565b92915050565b6000815190506108f2816106dd565b92915050565b60006020828403121561090e5761090d6106ce565b5b600061091c848285016108e3565b91505092915050565b600082825260208201905092915050565b7f496e73756666696369656e7420746f6b656e2062616c616e6365000000000000600082015250565b600061096c601a83610925565b915061097782610936565b602082019050919050565b6000602082019050818103600083015261099b8161095f565b9050919050565b6109ab816106d3565b82525050565b60006060820190506109c660008301866108b9565b6109d360208301856108b9565b6109e060408301846109a2565b949350505050565b60008115159050919050565b6109fd816109e8565b8114610a0857600080fd5b50565b600081519050610a1a816109f4565b92915050565b600060208284031215610a3657610a356106ce565b5b6000610a4484828501610a0b565b91505092915050565b7f4e487b7100000000000000000000000000000000000000000000000000000000600052601160045260246000fd5b6000610a87826106d3565b91507fffffffffffffffffffffffffffffffffffffffffffffffffffffffffffffffff821415610aba57610ab9610a4d565b5b600182019050919050565b608082016000820151610adb600085018261076f565b506020820151610aee602085018261076f565b506040820151610b01604085018261076f565b506060820151610b14606085018261077e565b50505050565b6000608082019050610b2f6000830184610ac5565b92915050565b6000604082019050610b4a60008301856108b9565b610b5760208301846109a2565b9392505050565b7f4e487b7100000000000000000000000000000000000000000000000000000000600052601260045260246000fd5b6000610b9882610762565b9150610ba383610762565b925082610bb357610bb2610b5e565b5b828206905092915050565b6000610bc982610762565b9150610bd483610762565b92508160ff0483118215151615610bee57610bed610a4d565b5b828202905092915050565b6000819050919050565b610c14610c0f826106d3565b610bf9565b82525050565b6000610c268285610c03565b602082019150610c368284610c03565b6020820191508190509392505050565b6000610c51826106d3565b9150610c5c836106d3565b925082610c6c57610c6b610b5e565b5b82820690509291505056fea26469706673582212201ff7f8500bb3a6c95e5e3157dfd91f74d6e7e439c443e7c1ed799cf9421d1c5d64736f6c634300080b0033",
  "immutableReferences": {},
  "source": "// SPDX-License-Identifier: MIT\r\npragma solidity >=0.4.22 <0.9.0;\r\n\r\nimport \"../node_modules/openzeppelin-solidity/contracts/token/ERC20/ERC20.sol\";\r\n\r\ncontract Clicker {\r\n\r\n    struct employee{\r\n        uint8 grade;\r\n        uint8 speed;\r\n        uint8 stamina;\r\n        uint256 dna;\r\n    }\r\n    \r\n    event BuyEmployee(employee newEmployee);\r\n    event receivedReward(uint amount);\r\n\r\n    mapping(uint => address) employeeToOwner;\r\n    mapping(address => uint) ownerEmployeeCount;\r\n\r\n    employee[] employees;\r\n    uint randmodule = 10 ** 16;\r\n    ERC20 token;\r\n\r\n    constructor(address _tokenAddr) {\r\n        token = ERC20(_tokenAddr);\r\n    }\r\n\r\n    function buyEmployee(uint256 _cost) public payable{\r\n        require(token.balanceOf(msg.sender) >= _cost, \"Insufficient token balance\");\r\n        token.transferFrom(msg.sender, address(this), _cost);\r\n        employee memory _employee = generateEmployee();\r\n        employees.push(_employee);\r\n        employeeToOwner[_employee.dna] = msg.sender;\r\n        ownerEmployeeCount[msg.sender]++;\r\n        emit BuyEmployee(_employee);\r\n    }\r\n\r\n    function generateEmployee() private view returns(employee memory){\r\n        uint8 _grade = uint8(random()) % 3;\r\n        uint8 _speed = uint8(random()) % 10;\r\n        _speed *= _grade;\r\n        uint8 _stamina = _speed;\r\n        uint _dna = random();\r\n        employee memory _employee = employee(_grade, _speed, _stamina, _dna);\r\n        return _employee;\r\n    }\r\n\r\n    function receiveReward(uint _amount) public{\r\n        require(token.balanceOf(address(this)) >= _amount);\r\n        token.transfer(msg.sender, _amount); \r\n    }\r\n\r\n    function getAllEmployees() public view returns(employee[] memory){\r\n        return employees;\r\n    } \r\n\r\n    function random() private view returns (uint) {\r\n        //uint rand = uint(keccak256(block.timestamp));\r\n        uint rand = uint256(keccak256(abi.encodePacked(block.timestamp, block.difficulty)));\r\n        uint result = rand % randmodule;\r\n        return result;\r\n    }\r\n}",
  "sourcePath": "/home/kirua/blockchain/portfolio/clicker/contracts/Clicker.sol",
  "compiler": {
    "name": "solc",
    "version": "0.8.11+commit.d7f03943.Emscripten.clang"
  },
  "schemaVersion": "3.4.5",
  "updatedAt": "2022-03-10T16:48:48.927Z",
  "networkType": "ethereum",
  "devdoc": {
    "kind": "dev",
    "methods": {},
    "version": 1
  },
  "userdoc": {
    "kind": "user",
    "methods": {},
    "version": 1
  }
}